{
  "_format": "hh-sol-artifact-1",
  "contractName": "TrustTicketMarketplace",
  "sourceName": "contracts/TrustTicketsMarketplace.sol",
  "abi": [
    {
      "inputs": [],
      "stateMutability": "nonpayable",
      "type": "constructor"
    },
    {
      "anonymous": false,
      "inputs": [
        {
          "indexed": true,
          "internalType": "address",
          "name": "owner",
          "type": "address"
        },
        {
          "indexed": true,
          "internalType": "address",
          "name": "approved",
          "type": "address"
        },
        {
          "indexed": true,
          "internalType": "uint256",
          "name": "tokenId",
          "type": "uint256"
        }
      ],
      "name": "Approval",
      "type": "event"
    },
    {
      "anonymous": false,
      "inputs": [
        {
          "indexed": true,
          "internalType": "address",
          "name": "owner",
          "type": "address"
        },
        {
          "indexed": true,
          "internalType": "address",
          "name": "operator",
          "type": "address"
        },
        {
          "indexed": false,
          "internalType": "bool",
          "name": "approved",
          "type": "bool"
        }
      ],
      "name": "ApprovalForAll",
      "type": "event"
    },
    {
      "anonymous": false,
      "inputs": [
        {
          "indexed": true,
          "internalType": "uint256",
          "name": "tokenId",
          "type": "uint256"
        },
        {
          "indexed": false,
          "internalType": "address",
          "name": "seller",
          "type": "address"
        },
        {
          "indexed": false,
          "internalType": "address",
          "name": "owner",
          "type": "address"
        },
        {
          "indexed": false,
          "internalType": "uint256",
          "name": "price",
          "type": "uint256"
        },
        {
          "indexed": false,
          "internalType": "bool",
          "name": "sold",
          "type": "bool"
        }
      ],
      "name": "MarketItemCreated",
      "type": "event"
    },
    {
      "anonymous": false,
      "inputs": [
        {
          "indexed": true,
          "internalType": "address",
          "name": "from",
          "type": "address"
        },
        {
          "indexed": true,
          "internalType": "address",
          "name": "to",
          "type": "address"
        },
        {
          "indexed": true,
          "internalType": "uint256",
          "name": "tokenId",
          "type": "uint256"
        }
      ],
      "name": "Transfer",
      "type": "event"
    },
    {
      "inputs": [
        {
          "internalType": "address",
          "name": "to",
          "type": "address"
        },
        {
          "internalType": "uint256",
          "name": "tokenId",
          "type": "uint256"
        }
      ],
      "name": "approve",
      "outputs": [],
      "stateMutability": "nonpayable",
      "type": "function"
    },
    {
      "inputs": [
        {
          "internalType": "address",
          "name": "owner",
          "type": "address"
        }
      ],
      "name": "balanceOf",
      "outputs": [
        {
          "internalType": "uint256",
          "name": "",
          "type": "uint256"
        }
      ],
      "stateMutability": "view",
      "type": "function"
    },
    {
      "inputs": [
        {
          "internalType": "uint256",
          "name": "tokenId",
          "type": "uint256"
        }
      ],
      "name": "burn",
      "outputs": [],
      "stateMutability": "nonpayable",
      "type": "function"
    },
    {
      "inputs": [
        {
          "internalType": "uint256[]",
          "name": "tokenId",
          "type": "uint256[]"
        }
      ],
      "name": "burnMultiple",
      "outputs": [],
      "stateMutability": "nonpayable",
      "type": "function"
    },
    {
      "inputs": [
        {
          "internalType": "uint256",
          "name": "tokenId",
          "type": "uint256"
        }
      ],
      "name": "checkTicket",
      "outputs": [
        {
          "internalType": "bool",
          "name": "",
          "type": "bool"
        }
      ],
      "stateMutability": "view",
      "type": "function"
    },
    {
      "inputs": [
        {
          "internalType": "uint256",
          "name": "tokenId",
          "type": "uint256"
        }
      ],
      "name": "checkTicketExists",
      "outputs": [
        {
          "internalType": "bool",
          "name": "",
          "type": "bool"
        }
      ],
      "stateMutability": "view",
      "type": "function"
    },
    {
      "inputs": [
        {
          "internalType": "uint256",
          "name": "tokenId",
          "type": "uint256"
        },
        {
          "internalType": "address",
          "name": "buyer",
          "type": "address"
        },
        {
          "internalType": "address",
          "name": "organisator",
          "type": "address"
        }
      ],
      "name": "buyTicket",
      "outputs": [],
      "stateMutability": "payable",
      "type": "function"
    },
    {
      "inputs": [
        {
          "internalType": "uint256",
          "name": "",
          "type": "uint256"
        }
      ],
      "name": "events",
      "outputs": [
        {
          "internalType": "address",
          "name": "admin",
          "type": "address"
        },
        {
          "internalType": "string",
          "name": "name",
          "type": "string"
        },
        {
          "internalType": "uint256",
          "name": "date",
          "type": "uint256"
        },
        {
          "internalType": "uint256",
          "name": "price",
          "type": "uint256"
        },
        {
          "internalType": "uint256",
          "name": "ticketCount",
          "type": "uint256"
        },
        {
          "internalType": "uint256",
          "name": "ticketRemaining",
          "type": "uint256"
        }
      ],
      "stateMutability": "view",
      "type": "function"
    },
    {
      "inputs": [],
      "name": "fetchItemsListed",
      "outputs": [
        {
          "components": [
            {
              "internalType": "uint256",
              "name": "tokenId",
              "type": "uint256"
            },
            {
              "internalType": "address payable",
              "name": "seller",
              "type": "address"
            },
            {
              "internalType": "address payable",
              "name": "owner",
              "type": "address"
            },
            {
              "internalType": "uint256",
              "name": "price",
              "type": "uint256"
            },
            {
              "internalType": "bool",
              "name": "sold",
              "type": "bool"
            }
          ],
          "internalType": "struct TrustTicketMarketplace.MarketItem[]",
          "name": "",
          "type": "tuple[]"
        }
      ],
      "stateMutability": "view",
      "type": "function"
    },
    {
      "inputs": [],
      "name": "fetchMarketItems",
      "outputs": [
        {
          "components": [
            {
              "internalType": "uint256",
              "name": "tokenId",
              "type": "uint256"
            },
            {
              "internalType": "address payable",
              "name": "seller",
              "type": "address"
            },
            {
              "internalType": "address payable",
              "name": "owner",
              "type": "address"
            },
            {
              "internalType": "uint256",
              "name": "price",
              "type": "uint256"
            },
            {
              "internalType": "bool",
              "name": "sold",
              "type": "bool"
            }
          ],
          "internalType": "struct TrustTicketMarketplace.MarketItem[]",
          "name": "",
          "type": "tuple[]"
        }
      ],
      "stateMutability": "view",
      "type": "function"
    },
    {
      "inputs": [],
      "name": "fetchMyNFTs",
      "outputs": [
        {
          "components": [
            {
              "internalType": "uint256",
              "name": "tokenId",
              "type": "uint256"
            },
            {
              "internalType": "address payable",
              "name": "seller",
              "type": "address"
            },
            {
              "internalType": "address payable",
              "name": "owner",
              "type": "address"
            },
            {
              "internalType": "uint256",
              "name": "price",
              "type": "uint256"
            },
            {
              "internalType": "bool",
              "name": "sold",
              "type": "bool"
            }
          ],
          "internalType": "struct TrustTicketMarketplace.MarketItem[]",
          "name": "",
          "type": "tuple[]"
        }
      ],
      "stateMutability": "view",
      "type": "function"
    },
    {
      "inputs": [
        {
          "internalType": "uint256",
          "name": "tokenId",
          "type": "uint256"
        }
      ],
      "name": "getApproved",
      "outputs": [
        {
          "internalType": "address",
          "name": "",
          "type": "address"
        }
      ],
      "stateMutability": "view",
      "type": "function"
    },
    {
      "inputs": [],
      "name": "getListingPrice",
      "outputs": [
        {
          "internalType": "uint256",
          "name": "",
          "type": "uint256"
        }
      ],
      "stateMutability": "view",
      "type": "function"
    },
    {
      "inputs": [
        {
          "internalType": "address",
          "name": "owner",
          "type": "address"
        },
        {
          "internalType": "address",
          "name": "operator",
          "type": "address"
        }
      ],
      "name": "isApprovedForAll",
      "outputs": [
        {
          "internalType": "bool",
          "name": "",
          "type": "bool"
        }
      ],
      "stateMutability": "view",
      "type": "function"
    },
    {
      "inputs": [
        {
          "internalType": "uint256",
          "name": "tokenId",
          "type": "uint256"
        }
      ],
      "name": "isTokenContract",
      "outputs": [
        {
          "internalType": "bool",
          "name": "",
          "type": "bool"
        }
      ],
      "stateMutability": "view",
      "type": "function"
    },
    {
      "inputs": [
        {
          "internalType": "uint256",
          "name": "tokenId",
          "type": "uint256"
        }
      ],
      "name": "isUnique",
      "outputs": [
        {
          "internalType": "bool",
          "name": "",
          "type": "bool"
        }
      ],
      "stateMutability": "view",
      "type": "function"
    },
    {
      "inputs": [
        {
          "internalType": "uint256",
          "name": "numberToMint",
          "type": "uint256"
        },
        {
          "internalType": "string[]",
          "name": "tokenURI",
          "type": "string[]"
        },
        {
          "internalType": "uint256",
          "name": "price",
          "type": "uint256"
        }
      ],
      "name": "mintMultiple",
      "outputs": [],
      "stateMutability": "payable",
      "type": "function"
    },
    {
      "inputs": [],
      "name": "name",
      "outputs": [
        {
          "internalType": "string",
          "name": "",
          "type": "string"
        }
      ],
      "stateMutability": "view",
      "type": "function"
    },
    {
      "inputs": [
        {
          "internalType": "uint256",
          "name": "tokenId",
          "type": "uint256"
        }
      ],
      "name": "ownerOf",
      "outputs": [
        {
          "internalType": "address",
          "name": "",
          "type": "address"
        }
      ],
      "stateMutability": "view",
      "type": "function"
    },
    {
      "inputs": [
        {
          "internalType": "uint256",
          "name": "tokenId",
          "type": "uint256"
        },
        {
          "internalType": "uint256",
          "name": "price",
          "type": "uint256"
        }
      ],
      "name": "resellTicket",
      "outputs": [],
      "stateMutability": "payable",
      "type": "function"
    },
    {
      "inputs": [
        {
          "internalType": "address",
          "name": "from",
          "type": "address"
        },
        {
          "internalType": "address",
          "name": "to",
          "type": "address"
        },
        {
          "internalType": "uint256",
          "name": "tokenId",
          "type": "uint256"
        }
      ],
      "name": "safeTransferFrom",
      "outputs": [],
      "stateMutability": "nonpayable",
      "type": "function"
    },
    {
      "inputs": [
        {
          "internalType": "address",
          "name": "from",
          "type": "address"
        },
        {
          "internalType": "address",
          "name": "to",
          "type": "address"
        },
        {
          "internalType": "uint256",
          "name": "tokenId",
          "type": "uint256"
        },
        {
          "internalType": "bytes",
          "name": "data",
          "type": "bytes"
        }
      ],
      "name": "safeTransferFrom",
      "outputs": [],
      "stateMutability": "nonpayable",
      "type": "function"
    },
    {
      "inputs": [
        {
          "internalType": "address",
          "name": "operator",
          "type": "address"
        },
        {
          "internalType": "bool",
          "name": "approved",
          "type": "bool"
        }
      ],
      "name": "setApprovalForAll",
      "outputs": [],
      "stateMutability": "nonpayable",
      "type": "function"
    },
    {
      "inputs": [
        {
          "internalType": "bytes4",
          "name": "interfaceId",
          "type": "bytes4"
        }
      ],
      "name": "supportsInterface",
      "outputs": [
        {
          "internalType": "bool",
          "name": "",
          "type": "bool"
        }
      ],
      "stateMutability": "view",
      "type": "function"
    },
    {
      "inputs": [],
      "name": "symbol",
      "outputs": [
        {
          "internalType": "string",
          "name": "",
          "type": "string"
        }
      ],
      "stateMutability": "view",
      "type": "function"
    },
    {
      "inputs": [
        {
          "internalType": "uint256",
          "name": "tokenId",
          "type": "uint256"
        }
      ],
      "name": "tokenURI",
      "outputs": [
        {
          "internalType": "string",
          "name": "",
          "type": "string"
        }
      ],
      "stateMutability": "view",
      "type": "function"
    },
    {
      "inputs": [
        {
          "internalType": "address",
          "name": "from",
          "type": "address"
        },
        {
          "internalType": "address",
          "name": "to",
          "type": "address"
        },
        {
          "internalType": "uint256",
          "name": "tokenId",
          "type": "uint256"
        }
      ],
      "name": "transferFrom",
      "outputs": [],
      "stateMutability": "nonpayable",
      "type": "function"
    },
    {
      "inputs": [
        {
          "internalType": "uint256",
          "name": "_listingPrice",
          "type": "uint256"
        }
      ],
      "name": "updateListingPrice",
      "outputs": [],
      "stateMutability": "payable",
      "type": "function"
    }
  ],
  "bytecode": "0x608060405260016009553480156200001657600080fd5b50604080518082018252601081526f151c9d5cdd151a58dad95d115d995b9d60821b60208083019182528351808501909452600384526254544560e81b9084015281519192916200006a916000916200009b565b508051620000809060019060208401906200009b565b5050600a80546001600160a01b03191633179055506200017e565b828054620000a99062000141565b90600052602060002090601f016020900481019282620000cd576000855562000118565b82601f10620000e857805160ff191683800117855562000118565b8280016001018555821562000118579182015b8281111562000118578251825591602001919060010190620000fb565b50620001269291506200012a565b5090565b5b808211156200012657600081556001016200012b565b600181811c908216806200015657607f821691505b602082108114156200017857634e487b7160e01b600052602260045260246000fd5b50919050565b6126c2806200018e6000396000f3fe60806040526004361061014b5760003560e01c806342966c68116100b65780639909b1281161006f5780639909b12814610399578063a22cb465146103ac578063ae677aa3146103cc578063b88d4fde146103df578063c87b56dd146103ff578063e985e9c51461041f57600080fd5b806342966c68146102ef57806345f8fa801461030f5780636352211e146103245780636ab49a5b1461034457806370a082311461036457806395d89b411461038457600080fd5b806312e855851161010857806312e8558514610255578063202e37401461027457806323b872dd146102895780632d7b5e1a146102a9578063348e9913146102bc57806342842e0e146102cf57600080fd5b806301ffc9a71461015057806306fdde0314610185578063081812fc146101a7578063095ea7b3146101df5780630b791430146102015780630f08efe014610233575b600080fd5b34801561015c57600080fd5b5061017061016b366004611ef5565b610468565b60405190151581526020015b60405180910390f35b34801561019157600080fd5b5061019a6104ba565b60405161017c9190611f6a565b3480156101b357600080fd5b506101c76101c2366004611f7d565b61054c565b6040516001600160a01b03909116815260200161017c565b3480156101eb57600080fd5b506101ff6101fa366004611fb2565b610573565b005b34801561020d57600080fd5b5061022161021c366004611f7d565b61068e565b60405161017c96959493929190611fdc565b34801561023f57600080fd5b50610248610755565b60405161017c9190612025565b34801561026157600080fd5b506009545b60405190815260200161017c565b34801561028057600080fd5b506102486108ed565b34801561029557600080fd5b506101ff6102a43660046120a1565b610ac3565b6101ff6102b73660046121a0565b610af4565b6101ff6102ca36600461227f565b610b6a565b3480156102db57600080fd5b506101ff6102ea3660046120a1565b610cc6565b3480156102fb57600080fd5b506101ff61030a366004611f7d565b610ce1565b34801561031b57600080fd5b50610248610d63565b34801561033057600080fd5b506101c761033f366004611f7d565b610f39565b34801561035057600080fd5b506101ff61035f3660046122a1565b610f99565b34801561037057600080fd5b5061026661037f366004612332565b611051565b34801561039057600080fd5b5061019a6110d7565b6101ff6103a736600461234d565b6110e6565b3480156103b857600080fd5b506101ff6103c7366004612389565b61117e565b6101ff6103da366004611f7d565b611189565b3480156103eb57600080fd5b506101ff6103fa3660046123c5565b611226565b34801561040b57600080fd5b5061019a61041a366004611f7d565b611258565b34801561042b57600080fd5b5061017061043a366004612441565b6001600160a01b03918216600090815260056020908152604080832093909416825291909152205460ff1690565b60006001600160e01b031982166380ac58cd60e01b148061049957506001600160e01b03198216635b5e139f60e01b145b806104b457506301ffc9a760e01b6001600160e01b03198316145b92915050565b6060600080546104c990612474565b80601f01602080910402602001604051908101604052809291908181526020018280546104f590612474565b80156105425780601f1061051757610100808354040283529160200191610542565b820191906000526020600020905b81548152906001019060200180831161052557829003601f168201915b5050505050905090565b600061055782611369565b506000908152600460205260409020546001600160a01b031690565b600061057e82610f39565b9050806001600160a01b0316836001600160a01b031614156105f15760405162461bcd60e51b815260206004820152602160248201527f4552433732313a20617070726f76616c20746f2063757272656e74206f776e656044820152603960f91b60648201526084015b60405180910390fd5b336001600160a01b038216148061060d575061060d813361043a565b61067f5760405162461bcd60e51b815260206004820152603e60248201527f4552433732313a20617070726f76652063616c6c6572206973206e6f7420746f60448201527f6b656e206f776e6572206e6f7220617070726f76656420666f7220616c6c000060648201526084016105e8565b61068983836113c8565b505050565b600c60205260009081526040902080546001820180546001600160a01b0390921692916106ba90612474565b80601f01602080910402602001604051908101604052809291908181526020018280546106e690612474565b80156107335780601f1061070857610100808354040283529160200191610733565b820191906000526020600020905b81548152906001019060200180831161071657829003601f168201915b5050505050908060020154908060030154908060040154908060050154905086565b6060600061076260075490565b9050600061076f60085490565b60075461077c91906124c5565b90506000808267ffffffffffffffff81111561079a5761079a6120dd565b6040519080825280602002602001820160405280156107f357816020015b6040805160a0810182526000808252602080830182905292820181905260608201819052608082015282526000199092019101816107b85790505b50905060005b848110156108e45730600b60006108118460016124dc565b81526020810191909152604001600020600201546001600160a01b031614156108d25760006108418260016124dc565b6000818152600b6020908152604091829020825160a0810184528154815260018201546001600160a01b039081169382019390935260028201549092169282019290925260038201546060820152600482015460ff1615156080820152855192935090918590879081106108b7576108b76124f4565b60209081029190910101526108cd6001866124dc565b945050505b806108dc8161250a565b9150506107f9565b50949350505050565b606060006108fa60075490565b905060008060005b8381101561095d5733600b600061091a8460016124dc565b81526020810191909152604001600020600201546001600160a01b0316141561094b576109486001846124dc565b92505b806109558161250a565b915050610902565b5060008267ffffffffffffffff811115610979576109796120dd565b6040519080825280602002602001820160405280156109d257816020015b6040805160a0810182526000808252602080830182905292820181905260608201819052608082015282526000199092019101816109975790505b50905060005b848110156108e45733600b60006109f08460016124dc565b81526020810191909152604001600020600201546001600160a01b03161415610ab1576000610a208260016124dc565b6000818152600b6020908152604091829020825160a0810184528154815260018201546001600160a01b039081169382019390935260028201549092169282019290925260038201546060820152600482015460ff161515608082015285519293509091859087908110610a9657610a966124f4565b6020908102919091010152610aac6001866124dc565b945050505b80610abb8161250a565b9150506109d8565b610acd3382611436565b610ae95760405162461bcd60e51b81526004016105e890612525565b6106898383836114b4565b60005b83811015610b6457610b0d600780546001019055565b6000610b1860075490565b9050610b243382611650565b610b4781858481518110610b3a57610b3a6124f4565b6020026020010151611792565b610b51818461182c565b5080610b5c8161250a565b915050610af7565b50505050565b6000828152600b60205260409020600201546001600160a01b03163314610bef5760405162461bcd60e51b815260206004820152603360248201527f5365756c206c652070726f7072696574616972652070657574206d657474726560448201527208195b881d995b9d19481d5b88189a5b1b195d606a1b60648201526084016105e8565b600954341015610c675760405162461bcd60e51b815260206004820152603c60248201527f4c65207072697820646f69742065747265206567616c206f752073757065726960448201527f6575722061752070726978206465206d69736520656e2076656e74650000000060648201526084016105e8565b6000828152600b6020526040902060048101805460ff19169055600381018290556001810180546001600160a01b031990811633179091556002909101805490911630179055610cb7600861196c565b610cc23330846114b4565b5050565b61068983838360405180602001604052806000815250611226565b600a546001600160a01b03163314610d575760405162461bcd60e51b815260206004820152603360248201527f5365756c206c652070726f70726965746169726520647520636f6e74726174206044820152721c195d5d08189d5c9b881d5b88189a5b1b195d606a1b60648201526084016105e8565b610d60816119c3565b50565b60606000610d7060075490565b905060008060005b83811015610dd35733600b6000610d908460016124dc565b81526020810191909152604001600020600101546001600160a01b03161415610dc157610dbe6001846124dc565b92505b80610dcb8161250a565b915050610d78565b5060008267ffffffffffffffff811115610def57610def6120dd565b604051908082528060200260200182016040528015610e4857816020015b6040805160a081018252600080825260208083018290529282018190526060820181905260808201528252600019909201910181610e0d5790505b50905060005b848110156108e45733600b6000610e668460016124dc565b81526020810191909152604001600020600101546001600160a01b03161415610f27576000610e968260016124dc565b6000818152600b6020908152604091829020825160a0810184528154815260018201546001600160a01b039081169382019390935260028201549092169282019290925260038201546060820152600482015460ff161515608082015285519293509091859087908110610f0c57610f0c6124f4565b6020908102919091010152610f226001866124dc565b945050505b80610f318161250a565b915050610e4e565b6000818152600260205260408120546001600160a01b0316806104b45760405162461bcd60e51b8152602060048201526018602482015277115490cdcc8c4e881a5b9d985b1a59081d1bdad95b88125160421b60448201526064016105e8565b600a546001600160a01b031633146110115760405162461bcd60e51b815260206004820152603560248201527f5365756c206c652070726f70726965746169726520647520636f6e747261742060448201527470657574206275726e206465732062696c6c65747360581b60648201526084016105e8565b60005b8151811015610cc25761103f828281518110611032576110326124f4565b60200260200101516119c3565b806110498161250a565b915050611014565b60006001600160a01b0382166110bb5760405162461bcd60e51b815260206004820152602960248201527f4552433732313a2061646472657373207a65726f206973206e6f7420612076616044820152683634b21037bbb732b960b91b60648201526084016105e8565b506001600160a01b031660009081526003602052604090205490565b6060600180546104c990612474565b6000838152600b602052604090206002810180546001600160a01b0385166001600160a01b03199182161790915560048201805460ff191660019081179091559091018054909116905561113e600880546001019055565b6111493083856114b4565b6040516001600160a01b038216903480156108fc02916000818181858888f19350505050158015610b64573d6000803e3d6000fd5b610cc2338383611a03565b600a546001600160a01b031633146112215760405162461bcd60e51b815260206004820152604f60248201527f5365756c206c652070726f707269657461697265206475206d61726b7465706c60448201527f6163652070657574206d65747472652061206a6f7572206c652070726978206460648201526e65206d69736520656e2076656e746560881b608482015260a4016105e8565b600955565b6112303383611436565b61124c5760405162461bcd60e51b81526004016105e890612525565b610b6484848484611ad2565b606061126382611369565b6000828152600660205260408120805461127c90612474565b80601f01602080910402602001604051908101604052809291908181526020018280546112a890612474565b80156112f55780601f106112ca576101008083540402835291602001916112f5565b820191906000526020600020905b8154815290600101906020018083116112d857829003601f168201915b50505050509050600061131360408051602081019091526000815290565b9050805160001415611326575092915050565b815115611358578082604051602001611340929190612573565b60405160208183030381529060405292505050919050565b61136184611b05565b949350505050565b6000818152600260205260409020546001600160a01b0316610d605760405162461bcd60e51b8152602060048201526018602482015277115490cdcc8c4e881a5b9d985b1a59081d1bdad95b88125160421b60448201526064016105e8565b600081815260046020526040902080546001600160a01b0319166001600160a01b03841690811790915581906113fd82610f39565b6001600160a01b03167f8c5be1e5ebec7d5bd14f71427d1e84f3dd0314c0f7b2291e5b200ac8c7c3b92560405160405180910390a45050565b60008061144283610f39565b9050806001600160a01b0316846001600160a01b0316148061148957506001600160a01b0380821660009081526005602090815260408083209388168352929052205460ff165b806113615750836001600160a01b03166114a28461054c565b6001600160a01b031614949350505050565b826001600160a01b03166114c782610f39565b6001600160a01b03161461152b5760405162461bcd60e51b815260206004820152602560248201527f4552433732313a207472616e736665722066726f6d20696e636f72726563742060448201526437bbb732b960d91b60648201526084016105e8565b6001600160a01b03821661158d5760405162461bcd60e51b8152602060048201526024808201527f4552433732313a207472616e7366657220746f20746865207a65726f206164646044820152637265737360e01b60648201526084016105e8565b6115986000826113c8565b6001600160a01b03831660009081526003602052604081208054600192906115c19084906124c5565b90915550506001600160a01b03821660009081526003602052604081208054600192906115ef9084906124dc565b909155505060008181526002602052604080822080546001600160a01b0319166001600160a01b0386811691821790925591518493918716917fddf252ad1be2c89b69c2b068fc378daa952ba7f163c4a11628f55a4df523b3ef91a4505050565b6001600160a01b0382166116a65760405162461bcd60e51b815260206004820181905260248201527f4552433732313a206d696e7420746f20746865207a65726f206164647265737360448201526064016105e8565b6000818152600260205260409020546001600160a01b03161561170b5760405162461bcd60e51b815260206004820152601c60248201527f4552433732313a20746f6b656e20616c7265616479206d696e7465640000000060448201526064016105e8565b6001600160a01b03821660009081526003602052604081208054600192906117349084906124dc565b909155505060008181526002602052604080822080546001600160a01b0319166001600160a01b03861690811790915590518392907fddf252ad1be2c89b69c2b068fc378daa952ba7f163c4a11628f55a4df523b3ef908290a45050565b6000828152600260205260409020546001600160a01b031661180d5760405162461bcd60e51b815260206004820152602e60248201527f45524337323155524953746f726167653a2055524920736574206f66206e6f6e60448201526d32bc34b9ba32b73a103a37b5b2b760911b60648201526084016105e8565b6000828152600660209081526040909120825161068992840190611e10565b600081116118875760405162461bcd60e51b815260206004820152602260248201527f4c65207072697820646f697420657472652064276175206d6f696e7320312077604482015261656960f01b60648201526084016105e8565b6040805160a081018252838152306020808301828152838501838152606085018781526000608087018181528a8252600b909552969096209451855590516001850180546001600160a01b03199081166001600160a01b0393841617909155915160028601805490931691161790559251600383015591516004909101805460ff191691151591909117905561191f903390846114b4565b604080513080825260208201529081018290526000606082015282907fb640004f1d14576d0c209e240cad0410e0d8c0c33a09375861fbadae2588a98d9060800160405180910390a25050565b8054806119bb5760405162461bcd60e51b815260206004820152601b60248201527f436f756e7465723a2064656372656d656e74206f766572666c6f77000000000060448201526064016105e8565b600019019055565b6119cc81611b79565b600081815260066020526040902080546119e590612474565b159050610d60576000818152600660205260408120610d6091611e94565b816001600160a01b0316836001600160a01b03161415611a655760405162461bcd60e51b815260206004820152601960248201527f4552433732313a20617070726f766520746f2063616c6c65720000000000000060448201526064016105e8565b6001600160a01b03838116600081815260056020908152604080832094871680845294825291829020805460ff191686151590811790915591519182527f17307eab39ab6107e8899845ad3d59bd9653f200f220920489ca2b5937696c31910160405180910390a3505050565b611add8484846114b4565b611ae984848484611c14565b610b645760405162461bcd60e51b81526004016105e8906125a2565b6060611b1082611369565b6000611b2760408051602081019091526000815290565b90506000815111611b475760405180602001604052806000815250611b72565b80611b5184611d12565b604051602001611b62929190612573565b6040516020818303038152906040525b9392505050565b6000611b8482610f39565b9050611b916000836113c8565b6001600160a01b0381166000908152600360205260408120805460019290611bba9084906124c5565b909155505060008281526002602052604080822080546001600160a01b0319169055518391906001600160a01b038416907fddf252ad1be2c89b69c2b068fc378daa952ba7f163c4a11628f55a4df523b3ef908390a45050565b60006001600160a01b0384163b15611d0757604051630a85bd0160e11b81526001600160a01b0385169063150b7a0290611c589033908990889088906004016125f4565b6020604051808303816000875af1925050508015611c93575060408051601f3d908101601f19168201909252611c9091810190612631565b60015b611ced573d808015611cc1576040519150601f19603f3d011682016040523d82523d6000602084013e611cc6565b606091505b508051611ce55760405162461bcd60e51b81526004016105e8906125a2565b805181602001fd5b6001600160e01b031916630a85bd0160e11b149050611361565b506001949350505050565b606081611d365750506040805180820190915260018152600360fc1b602082015290565b8160005b8115611d605780611d4a8161250a565b9150611d599050600a83612664565b9150611d3a565b60008167ffffffffffffffff811115611d7b57611d7b6120dd565b6040519080825280601f01601f191660200182016040528015611da5576020820181803683370190505b5090505b841561136157611dba6001836124c5565b9150611dc7600a86612678565b611dd29060306124dc565b60f81b818381518110611de757611de76124f4565b60200101906001600160f81b031916908160001a905350611e09600a86612664565b9450611da9565b828054611e1c90612474565b90600052602060002090601f016020900481019282611e3e5760008555611e84565b82601f10611e5757805160ff1916838001178555611e84565b82800160010185558215611e84579182015b82811115611e84578251825591602001919060010190611e69565b50611e90929150611eca565b5090565b508054611ea090612474565b6000825580601f10611eb0575050565b601f016020900490600052602060002090810190610d6091905b5b80821115611e905760008155600101611ecb565b6001600160e01b031981168114610d6057600080fd5b600060208284031215611f0757600080fd5b8135611b7281611edf565b60005b83811015611f2d578181015183820152602001611f15565b83811115610b645750506000910152565b60008151808452611f56816020860160208601611f12565b601f01601f19169290920160200192915050565b602081526000611b726020830184611f3e565b600060208284031215611f8f57600080fd5b5035919050565b80356001600160a01b0381168114611fad57600080fd5b919050565b60008060408385031215611fc557600080fd5b611fce83611f96565b946020939093013593505050565b6001600160a01b038716815260c06020820181905260009061200090830188611f3e565b90508560408301528460608301528360808301528260a0830152979650505050505050565b602080825282518282018190526000919060409081850190868401855b8281101561209457815180518552868101516001600160a01b03908116888701528682015116868601526060808201519086015260809081015115159085015260a09093019290850190600101612042565b5091979650505050505050565b6000806000606084860312156120b657600080fd5b6120bf84611f96565b92506120cd60208501611f96565b9150604084013590509250925092565b634e487b7160e01b600052604160045260246000fd5b604051601f8201601f1916810167ffffffffffffffff8111828210171561211c5761211c6120dd565b604052919050565b600067ffffffffffffffff82111561213e5761213e6120dd565b5060051b60200190565b600067ffffffffffffffff831115612162576121626120dd565b612175601f8401601f19166020016120f3565b905082815283838301111561218957600080fd5b828260208301376000602084830101529392505050565b6000806000606084860312156121b557600080fd5b8335925060208085013567ffffffffffffffff808211156121d557600080fd5b818701915087601f8301126121e957600080fd5b81356121fc6121f782612124565b6120f3565b81815260059190911b8301840190848101908a83111561221b57600080fd5b8585015b83811015612268578035858111156122375760008081fd5b8601603f81018d136122495760008081fd5b61225a8d8983013560408401612148565b84525091860191860161221f565b50979a979950505050604095909501359450505050565b6000806040838503121561229257600080fd5b50508035926020909101359150565b600060208083850312156122b457600080fd5b823567ffffffffffffffff8111156122cb57600080fd5b8301601f810185136122dc57600080fd5b80356122ea6121f782612124565b81815260059190911b8201830190838101908783111561230957600080fd5b928401925b828410156123275783358252928401929084019061230e565b979650505050505050565b60006020828403121561234457600080fd5b611b7282611f96565b60008060006060848603121561236257600080fd5b8335925061237260208501611f96565b915061238060408501611f96565b90509250925092565b6000806040838503121561239c57600080fd5b6123a583611f96565b9150602083013580151581146123ba57600080fd5b809150509250929050565b600080600080608085870312156123db57600080fd5b6123e485611f96565b93506123f260208601611f96565b925060408501359150606085013567ffffffffffffffff81111561241557600080fd5b8501601f8101871361242657600080fd5b61243587823560208401612148565b91505092959194509250565b6000806040838503121561245457600080fd5b61245d83611f96565b915061246b60208401611f96565b90509250929050565b600181811c9082168061248857607f821691505b602082108114156124a957634e487b7160e01b600052602260045260246000fd5b50919050565b634e487b7160e01b600052601160045260246000fd5b6000828210156124d7576124d76124af565b500390565b600082198211156124ef576124ef6124af565b500190565b634e487b7160e01b600052603260045260246000fd5b600060001982141561251e5761251e6124af565b5060010190565b6020808252602e908201527f4552433732313a2063616c6c6572206973206e6f7420746f6b656e206f776e6560408201526d1c881b9bdc88185c1c1c9bdd995960921b606082015260800190565b60008351612585818460208801611f12565b835190830190612599818360208801611f12565b01949350505050565b60208082526032908201527f4552433732313a207472616e7366657220746f206e6f6e20455243373231526560408201527131b2b4bb32b91034b6b83632b6b2b73a32b960711b606082015260800190565b6001600160a01b038581168252841660208201526040810183905260806060820181905260009061262790830184611f3e565b9695505050505050565b60006020828403121561264357600080fd5b8151611b7281611edf565b634e487b7160e01b600052601260045260246000fd5b6000826126735761267361264e565b500490565b6000826126875761268761264e565b50069056fea26469706673582212208e69b5747eb6fb8c61670f15b38d6216e79db3fe4d7a46207e656a1fe11985cf64736f6c634300080c0033",
  "linkReferences": {},
  "deployedLinkReferences": {}
}